:100000000C9462000C948A000C948A000C948A0070
:100010000C948A000C948A000C948A000C948A0038
:100020000C948A000C948A000C948A000C94D403DB
:100030000C948A000C948A000C948A000C948A0018
:100040000C9432030C948A000C94A2030C947C034D
:100050000C948A000C948A000C948A000C948A00F8
:100060000C948A000C948A000000000023002600F3
:10007000290000000000240027002A0000000000E2
:10008000250028002B0004040404040404040202D4
:100090000202020203030303030301020408102007
:1000A0004080010204081020010204081020000012
:1000B0000008000201000003040700000000000027
:1000C0000000D50411241FBECFEFD8E0DEBFCDBFA6
:1000D00011E0A0E0B1E0E2EFF1E102C005900D9285
:1000E000A231B107D9F721E0A2E1B1E001C01D9230
:1000F000A13FB207E1F710E0C2E6D0E004C02197CB
:10010000FE010E94F108C136D107C9F70E943205ED
:100110000C94F7080C9400008F929F92AF92BF92BC
:10012000FF920F931F93CF93DF93F090EE012BE09C
:100130002F1508F44CC02091F00108E512E0021BD5
:10014000110927FD1395000F111F000F111F20919A
:10015000EF01C8E8D0E0C21BD10927FDD395CC0F31
:10016000DD1FCC0FDD1F4E010D2E000CAA08BB08B1
:100170009801012E000C440B550B281939094A0926
:100180005B09DC010E94760724EB30E040E050E0A0
:100190000E944C07820E931EA41EB51E8C169D064F
:1001A0002CF0E801801691060CF4E4012297CC0FA4
:1001B000DD1F2FB7F8948F2D90E0FC01EE0FFF1F8D
:1001C000E80FF91FE753FE4FD283C1832FBFDF91A2
:1001D000CF911F910F91FF90BF90AF909F908F9004
:1001E000089590E0FC01E255FF4F2491FC01E65692
:1001F000FF4F3491FC01EA57FF4FE491EE23C9F021
:10020000222339F0233001F1A8F4213019F12230F2
:1002100029F1F0E0EE0FFF1FE458FF4FA591B491D4
:100220008FB7F894EC91611126C030953E233C9332
:100230008FBF08952730A9F02830C9F0243049F73E
:10024000809180008F7D03C0809180008F778093A4
:100250008000DFCF84B58F7784BDDBCF84B58F7D01
:10026000FBCF8091B0008F778093B000D2CF809188
:10027000B0008F7DF9CF3E2BDACFCF93DF9390E0A4
:10028000FC01E656FF4F24918A579F4FFC01849151
:100290008823D1F090E0880F991FFC01EE58FF4FA2
:1002A000A591B491FC01E458FF4FC591D49161111F
:1002B0000EC09FB7F8948C91E22FE0958E238C931B
:1002C0002881E223E8839FBFDF91CF9108958FB704
:1002D000F894EC91E22BEC938FBFF6CF3FB7F894F4
:1002E0008091280190912901A0912A01B0912B01C0
:1002F00026B5A89B05C02F3F19F00196A11DB11D81
:100300003FBFBA2FA92F982F8827BC01CD01620FBC
:10031000711D811D911D42E0660F771F881F991F77
:100320004A95D1F708958F929F92AF92BF92CF9244
:10033000DF92EF92FF924B015C010E946E016B0114
:100340007C010E946E016C197D098E099F09683E2F
:10035000734081059105A8F321E0821A9108A10854
:10036000B10888EEC80E83E0D81EE11CF11C811490
:100370009104A104B10429F7FF90EF90DF90CF9092
:10038000BF90AF909F908F900895AF92BF92CF9201
:10039000DF92EF92FF920F931F93CF93DF936C0145
:1003A0007B018B01040F151FEB015E01AE18BF0826
:1003B000C017D10759F06991D601ED91FC910190D8
:1003C000F081E02DC6010995892B79F7C501DF91F0
:1003D000CF911F910F91FF90EF90DF90CF90BF9042
:1003E000AF900895FC01538D448D252F30E0842F6C
:1003F00090E0821B930B541710F0CF96089501974D
:100400000895FC01918D828D981761F0A28DAE0F39
:10041000BF2FB11D5D968C91928D9F5F9F73928FC0
:1004200090E008958FEF9FEF0895FC01918D828DEC
:10043000981731F0828DE80FF11D858D90E00895B9
:100440008FEF9FEF0895FC01918D228D892F90E011
:10045000805C9F4F821B91098F73992708958CE2CE
:1004600091E00E94230221E0892B09F420E0822FF1
:10047000089580E090E0892B29F00E942F028111DD
:100480000C9400000895FC01A48DA80FB92FB11D94
:10049000A35ABF4F2C91848D90E001968F739927BA
:1004A000848FA689B7892C93A089B1898C91837098
:1004B00080648C93938D848D981306C00288F38991
:1004C000E02D80818F7D80830895EF92FF920F93BE
:1004D0001F93CF93DF93EC0181E0888F9B8D8C8DF0
:1004E00098131AC0E889F989808185FF15C09FB7E4
:1004F000F894EE89FF896083E889F98980818370A7
:10050000806480839FBF81E090E0DF91CF911F9155
:100510000F91FF90EF900895F62E0B8D10E00F5F76
:100520001F4F0F731127E02E8C8D8E110CC00FB64C
:1005300007FCFACFE889F989808185FFF5CFCE01E4
:100540000E944302F1CFEB8DEC0FFD2FF11DE35A1A
:10055000FF4FF0829FB7F8940B8FEA89FB89808167
:100560008062CFCFCF93DF93EC01888D8823B9F0E1
:10057000AA89BB89E889F9898C9185FD03C08081AE
:1005800086FD0DC00FB607FCF7CF8C9185FFF2CF2B
:10059000808185FFEDCFCE010E944302E9CFDF913C
:1005A000CF910895892B79F41092800082E0809396
:1005B00081001092850010928400B19A80916F00A2
:1005C000826080936F0008958F929F92AF92BF9246
:1005D0000F931F93CF93DF93CDB7DEB7A1970FB6DD
:1005E000F894DEBF0FBECDBF19A2423008F44AE036
:1005F0008E010F5D1F4F842E912CB12CA12CA501D3
:1006000094010E947E07E62FB901CA01EA3044F541
:10061000E05DD801EE938D01232B242B252B79F758
:1006200090E080E0109769F0FD0101900020E9F76B
:100630003197AF014A1B5B0BBD018CE291E00E9438
:10064000C501A1960FB6F894DEBF0FBECDBFDF91F6
:10065000CF911F910F91BF90AF909F908F90089571
:10066000E95CD7CF1F920F920FB60F9211242F93F0
:100670003F938F939F93AF93BF9380912401909169
:100680002501A0912601B09127013091230123E09B
:10069000230F2D3758F50196A11DB11D209323017D
:1006A0008093240190932501A0932601B093270104
:1006B0008091280190912901A0912A01B0912B01EC
:1006C0000196A11DB11D8093280190932901A0934B
:1006D0002A01B0932B01BF91AF919F918F913F91D0
:1006E0002F910F900FBE0F901F90189526E8230FA3
:1006F0000296A11DB11DD2CF1F920F920FB60F927D
:1007000011242F933F934F935F936F937F938F9316
:100710009F93AF93BF93EF93FF938CE291E00E947E
:100720004302FF91EF91BF91AF919F918F917F9184
:100730006F915F914F913F912F910F900FBE0F904E
:100740001F9018951F920F920FB60F9211242F939E
:100750008F939F93EF93FF93E0913C01F0913D01C4
:100760008081E0914201F091430182FD1BC09081A4
:10077000809145018F5F8F7320914601821741F070
:10078000E0914501F0E0E45DFE4F958F80934501D7
:10079000FF91EF919F918F912F910F900FBE0F902E
:1007A0001F9018958081F4CF1F920F920FB60F9271
:1007B00011242F933F934F935F936F937F938F9366
:1007C0009F93AF93BF93CF93DF93EF93FF9380916A
:1007D0001201C091ED01D0E087FF24C01092850086
:1007E00010928400809112018F5F8093120180919A
:1007F0001201082E000C990B8C179D0724F4809190
:1008000012018C30C4F1809184009091850004968F
:1008100080349C4908F47AC08091840090918500CE
:10082000049676C080911201082E000C990B8C174B
:100830009D07C4F6E09112018E2FEE0F990BFC017B
:10084000EE0FFF1FE80FF91FE753FE4F808186FF71
:10085000C9CFE09112018E2FEE0F990BFC01EE0F24
:10086000FF1FE80FF91FE753FE4F808160E08F7391
:100870000E94F100B7CF2091840030918500E09173
:1008800012018E2FEE0F990BFC01EE0FFF1FE80FE8
:10089000F91FE753FE4F81819281820F931F90933E
:1008A000890080938800E09112018E2FEE0F990B42
:1008B000FC01EE0FFF1FE80FF91FE753FE4F808189
:1008C00086FF11C0E09112018E2FEE0F990BFC01F3
:1008D000EE0FFF1FE80FF91FE753FE4F808161E025
:1008E0008F730E94F100FF91EF91DF91CF91BF9143
:1008F000AF919F918F917F916F915F914F913F91B8
:100900002F910F900FBE0F901F90189580E49CE9D7
:1009100090938900809388008FEF80931201E3CF3A
:10092000CF92DF92EF92FF920F931F93E82FF92F50
:1009300005C0015011092109310961F19081962307
:100940009417B9F305C0015011092109310911F1BA
:10095000908196239413F7CFC12CD12CE12CF12C4C
:100960000AC08FEFC81AD80AE80AF80A0C151D0544
:100970002E053F0579F080818623841791F36C2D35
:100980007D2D8E2D9F2D1F910F91FF90EF90DF9069
:10099000CF90089560E070E080E090E01F910F91AB
:1009A000FF90EF90DF90CF90089510922F0110925A
:1009B0002E0188EE93E0A0E0B0E0809330019093A8
:1009C0003101A0933201B093330184E091E0909320
:1009D0002D0180932C0185EC90E090933901809358
:1009E000380184EC90E090933B0180933A0180ECD5
:1009F00090E090933D0180933C0181EC90E09093D6
:100A00003F0180933E0182EC90E0909341018093FE
:100A1000400186EC90E09093430180934201109254
:100A200045011092460110924701109248018091B1
:100A3000ED018C3098F491E0980F9093ED01809344
:100A4000EE0190E0FC01EE0FFF1FE80FF91FE753E6
:100A5000FE4F88EB9BE09283818308958FEF809314
:100A6000EE010895789484B5826084BD84B5816078
:100A700084BD85B5826085BD85B5816085BD809169
:100A80006E00816080936E001092810080918100E1
:100A900082608093810080918100816080938100D9
:100AA000809180008160809380008091B10084609B
:100AB0008093B1008091B00081608093B0008091FC
:100AC0007A00846080937A0080917A0082608093BB
:100AD0007A0080917A00816080937A0080917A0018
:100AE000806880937A001092C100E0913C01F091FF
:100AF0003D0182E08083E0913801F091390110825C
:100B0000E0913A01F0913B018FEC80831092440117
:100B1000E0914001F091410186E08083E0913E0147
:100B2000F0913F01808180618083E0913E01F091EE
:100B30003F01808188608083E0913E01F0913F0118
:100B4000808180688083E0913E01F0913F01808147
:100B50008F7D80838091EE018C3008F043C061E08E
:100B600087E00E943D018091EE01282F30E0F901DD
:100B7000EE0FFF1FE20FF31FE753FE4F9081907CB3
:100B8000976090831092EF011092F0012CE0622F99
:100B90000E94E50890E0829FB001112430E020E03F
:100BA000AB01420F531FFA01EE0FFF1FE40FF51FB9
:100BB000E753FE4F408146FD07C02F5F3F4F2C306B
:100BC000310571F70E94D202E091EE018E2F90E084
:100BD000FC01EE0FFF1FE80FF91FE753FE4F808166
:100BE0008064808361E085E00E943D0160E086E0F2
:100BF0000E943D0190E080E00E948C0064E670E07D
:100C000080E090E00E949301E091EE018E2F90E051
:100C1000FC01EE0FFF1FE80FF91FE753FE4F808125
:100C20008F7B80833FE1232E31E0332E4FE0442E33
:100C3000512C57E3652E712C63E0862E912CA12C4C
:100C4000B12CC0E0D0E083E1E82E81E0F82E61E035
:100C50008AE00E94F10060E085E00E94F100C2019C
:100C60000197F1F761E085E00E94F100C30101976F
:100C7000F1F760E085E00E94F10060E086E00E940C
:100C80003D01E0EAF0E06491ECE8F0E08491E82FC7
:100C9000F0E0EE0FFF1FE859FF4F8591949100E4BB
:100CA00012E42FE030E0462F0E9490046115710598
:100CB0008105910529F06F5F7F4F8F4F9F4F9F7088
:100CC00095958795779567950E9459082DEC3CEC92
:100CD00048EE51E40E94AF070E94210860931F0173
:100CE000709320018093210190932201F701619379
:100CF0007193819391937F016AE070E080E090E0CE
:100D00000E9493012E143F0409F0A1CF60911301BA
:100D1000709114018091150190911601C0901701F6
:100D2000D0901801E0901901F0901A016C0D7D1D12
:100D30008E1D9F1DC0901B01D0901C01E0901D01D5
:100D4000F0901E016C0D7D1D8E1D9F1DA50194014F
:100D50000E944C0769017A01C0921F01D0922001C4
:100D6000E0922101F0922201F2E3CF16D104E104D6
:100D7000F1040CF08DC08091EE018C3008F044C07D
:100D800061E087E00E943D018091EE01482F50E034
:100D90009A01220F331F240F351FF901E753FE4F2D
:100DA0009081907C976090831092EF011092F001F7
:100DB0006CE00E94E508869FF001112450E040E0BD
:100DC000BF01640F751F9B01220F331F260F371FB2
:100DD000D901A753BE4F9C9196FD08C04F5F5F4F4E
:100DE0004C30510569F790E00E94D2022091EE014B
:100DF00030E0C901880F991F820F931FFC01E75350
:100E0000FE4F80818064808361E070E080E090E04C
:100E10000E94930190E080E00E948C0068EB7BE0F0
:100E200080E090E00E94930186E990E00E948C00AF
:100E300068EE73E080E090E00E9493012091EE0163
:100E400030E0C901880F991F820F931FFC01E753FF
:100E5000FE4F80818F7B8083F7FE1AC06DE28CE2AB
:100E600091E00E94650266277727CB016C197D0906
:100E70008E099F094AE00E94E402209709F4E3CE1C
:100E80000E942F02882309F4DECE0E940000DBCEF0
:100E90004AE0C701B601EFCF052E97FB1EF4009480
:100EA0000E94630757FD07D00E947E0707FC03D00E
:100EB0004EF40C94630750954095309521953F4F23
:100EC0004F4F5F4F089590958095709561957F4F36
:100ED0008F4F9F4F08950E94A007A59F900DB49F2C
:100EE000900DA49F800D911D11240895B7FF0C94BF
:100EF0006B070E946B07821B930B0895A1E21A2EC9
:100F0000AA1BBB1BFD010DC0AA1FBB1FEE1FFF1FAD
:100F1000A217B307E407F50720F0A21BB30BE40BFD
:100F2000F50B661F771F881F991F1A9469F7609544
:100F30007095809590959B01AC01BD01CF010895FE
:100F4000A29FB001B39FC001A39F700D811D11240A
:100F5000911DB29F700D811D1124911D08950E9455
:100F6000C3070C94AB080E94A40858F00E949D0887
:100F700040F029F45F3F29F00C94940851110C942F
:100F8000DF080C949A080E94BC0868F39923B1F317
:100F9000552391F3951B550BBB27AA27621773079F
:100FA000840738F09F5F5F4F220F331F441FAA1F33
:100FB000A9F335D00E2E3AF0E0E832D091505040EF
:100FC000E695001CCAF72BD0FE2F29D0660F771F9D
:100FD000881FBB1F261737074807AB07B0E809F083
:100FE000BB0B802DBF01FF2793585F4F3AF09E3F08
:100FF000510578F00C9494080C94DF085F3FE4F3FB
:10100000983ED4F3869577956795B795F7959F5F4A
:10101000C9F7880F911D9695879597F90895E1E096
:10102000660F771F881FBB1F621773078407BA07F5
:1010300020F0621B730B840BBA0BEE1F88F7E09550
:1010400008950E9428086894B1110C94DF0808954F
:101050000E94C40888F09F5798F0B92F9927B7517C
:10106000B0F0E1F0660F771F881F991F1AF0BA954C
:10107000C9F714C0B13091F00E94DE08B1E00895C4
:101080000C94DE08672F782F8827B85F39F0B93FB6
:10109000CCF3869577956795B395D9F73EF49095FF
:1010A0008095709561957F4F8F4F9F4F0895E8947D
:1010B00009C097FB3EF490958095709561957F4FA0
:1010C0008F4F9F4F9923A9F0F92F96E9BB2793954E
:1010D000F695879577956795B795F111F8CFFAF45E
:1010E000BB0F11F460FF1BC06F5F7F4F8F4F9F4F8F
:1010F00016C0882311F096E911C0772321F09EE8ED
:10110000872F762F05C0662371F096E8862F70E052
:1011100060E02AF09A95660F771F881FDAF7880F2C
:101120009695879597F9089597F99F6780E870E0FD
:1011300060E008959FEF80EC089500240A9416164D
:10114000170618060906089500240A9412161306B5
:10115000140605060895092E0394000C11F4882343
:1011600052F0BB0F40F4BF2B11F460FF04C06F5F5F
:101170007F4F8F4F9F4F089557FD9058440F551F35
:1011800059F05F3F71F04795880F97FB991F61F009
:101190009F3F79F087950895121613061406551F80
:1011A000F2CF4695F1DF08C0161617061806991FEC
:1011B000F1CF86957105610508940895E894BB27E1
:1011C00066277727CB0197F90895991B79E004C02A
:1011D000991F961708F0961B881F7A95C9F7809576
:1011E0000895EE0FFF1F0590F491E02D0994F894F7
:0211F000FFCF2F
:1011F200000000006502C501F201B20223020102F1
:021202001502D3
:00000001FF
